:020000040800F2
:100000000000022055020008590200085B020008A7
:100010007102000873020008890200080000000055
:100020000000000000000000000000009F02000827
:10003000A102000800000000A30200086D0C0008E7
:10004000B9020008B9020008B9020008B9020008A4
:10005000B9020008B9020008B9020008B902000894
:10006000B9020008B9020008B9020008B902000884
:10007000B9020008B9020008B9020008B902000874
:10008000B9020008B9020008B9020008B902000864
:10009000B9020008B9020008B9020008B902000854
:1000A000B9020008B9020008B9020008B902000844
:1000B000B9020008B9020008B9020008B902000834
:1000C000B9020008B9020008B9020008B902000824
:1000D000B9020008B9020008B9020008B902000814
:1000E000B9020008B9020008B9020008B902000804
:1000F000B9020008B9020008B9020008B9020008F4
:10010000B9020008B9020008B9020008B9020008E3
:10011000B9020008B9020008B9020008B9020008D3
:10012000B9020008B9020008B9020008B9020008C3
:10013000B9020008B9020008B9020008B9020008B3
:10014000B9020008B9020008B9020008B9020008A3
:10015000B9020008B9020008B9020008B902000893
:10016000B9020008B9020008B9020008B902000883
:10017000B9020008B9020008B90200080000000036
:10018000B9020008B902000807B500F0A9FC274B26
:100190002748834226D3274B274900208B422DD363
:1001A00000F0B8FD254E264C01A9684600F090FCF1
:1001B000A41BA4100025AC4229DC224E224CA41B17
:1001C000A4100025AC4227DC9DE8030000F0ACFD44
:1001D0001E4D1F4C641B0646A410002C21DC30462B
:1001E00000F072FC93E806000C3353F8044C944280
:1001F000CFD951F8045B42F8045BF8E753F8082BB9
:1002000053F8044C9442C9D942F8040BFAE756F863
:10021000253098470135CEE756F825309847013507
:10022000D0E7013C55F824309847D6E7BC020008D7
:10023000D4020008D4020008E4020008E402000826
:10024000E4020008E4020008E4020008E4020008F6
:10025000E402000814480047FEE71EF0040F0CBF3C
:10026000EFF30880EFF309807146104A1047FEE76C
:10027000FEE71EF0040F0CBFEFF30880EFF30980D8
:1002800071460B4A1047FEE71EF0040F0CBFEFF358
:100290000880EFF309807146064A1047FEE7FEE743
:1002A000FEE7FEE770470000890100086F020008C2
:0A02B000870200089D020008FEE727
:1002BC00900D0008000000200C000020900D00089C
:1002CC0000000010000000100C000020180000209E
:0802DC000000001000000010FA
:1002E40010B5084B044618684FF47A73B0FBF3F06A
:1002F40000F078F8002221464FF0FF3000F03EF87D
:10030400002010BD0800002008B50B4B1A6842F409
:1003140000721A601A6842F480621A601A6842F421
:1003240080721A60032000F017F80F20FFF7D8FF3F
:1003340000F01AFD002008BD003C0240024A136888
:1003440001331360704700BF10000020014B186890
:10035400704700BF10000020074AD36823F4E0630D
:100364001B041B0C43F0BF63000243F4003300F48E
:10037400E0600343D360704700ED00E0174B30B5F5
:10038400DC68C4F30224C4F10703251D042B28BF31
:100394000423062D4FF0010505FA03F303F1FF339F
:1003A4008CBF033C00241940A14005FA04F4013C2D
:1003B4002240002842EA01024FEA0212AFBF00F1D4
:1003C400604000F00F00064BD2B2A5BF00F56140BB
:1003D400D2B21A5480F8002330BD00BF00ED00E013
:1003E40014ED00E00138B0F1807F0AD2064B074AD1
:1003F4005860F02182F823100020072298601A60C8
:1004040070470120704700BF10E000E000ED00E0FD
:10041400044B1A6804280CBF42F0040222F00402C0
:100424001A60704710E000E02DE9F04F85B00B68CA
:10043400DFF8B8816B4ADFF8B891019300234FF0DD
:10044400010E019C0EFA03FE0EEA0406B64540F0C6
:10045400B2804C6824F01007022F16D14FEAD30A59
:1004640000EB8A0A03F0070BDAF820504FEA8B0BF3
:100474004FF00F0C0CFA0BFC25EA0C0C0D6905FA75
:100484000BF545EA0C05CAF820504FEA430A032548
:10049400D0F800B005FA0AF5ED4304F0030C0BEABA
:1004A400050B0CFA0AFC013F4CEA0B0C012FC0F8B7
:1004B40000C011D8876807EA050BCF6807FA0AFC61
:1004C4004CEA0B078760476827EA0E0EC4F300174F
:1004D4009F4047EA0E074760C7683D408F6807FAA8
:1004E4000AF73D43C560E50065D54FF0000BCDF834
:1004F4000CB0D8F844703C4D47F48047C8F84470B9
:10050400D8F8447007F480470397039F23F0030748
:1005140007F1804707F59C3703F0030CD7F808A0D0
:100524004FEA8C0C4FF00F0E0EFA0CFEA8422AEA8A
:100534000E0E47D005F58065A84245D005F58065C7
:10054400A84243D005F58065A84241D005F58065F1
:10055400A8423FD048453FD005F50065A8423DD0AC
:1005640005F58065A8423BD005F58065A84214BF17
:100574000925082505FA0CF545EA0E05BD60156840
:10058400F74314F4803F0CBF3D4035431560556874
:1005940014F4003F0CBF3D4035435560956814F496
:1005A400801F0CBF3D4035439560D568A40254BFFD
:1005B4003D403543D5600133102B7FF440AF05B087
:1005C400BDE8F08F5D46D5E70125D3E70225D1E7E5
:1005D4000325CFE70425CDE70525CBE70625C9E7A5
:1005E4000725C7E7003C01400000024000380240F4
:1005F400001402400AB1816170470904FBE700005E
:100604000368F7B50446D80738D4236899076DD42E
:1006140023681E0700F1B98023685D0728D50023ED
:100624000193A64BA64D1A6C42F080521A641B6CBF
:1006340003F080530193019B2B6843F480732B6078
:10064400FFF784FE06462B68DA0540F1C0809D4B17
:10065400227A1A70A368002B00F0C780FFF776FE99
:10066400964D064641F288372B6F9B0740F1B680C2
:10067400A269002A40F0C980002015E08F4B9A68D7
:1006840002F00C02042A07D09A6802F00C02082A2D
:100694000CD15B685A0209D5884B1B689B03B4D5FF
:1006A4006368002BB1D1012003B0F0BD864B2279E1
:1006B4001A7063686BB1FFF749FE804D06462B68DC
:1006C4009F03A2D4FFF742FE801B6428F7D90320BE
:1006D400EAE7FFF73BFE794D06462B68980394D56D
:1006E400FFF734FE801B6428F7D9F0E7734B9A6850
:1006F40012F00C0F07D09A6802F00C02082A16D1E7
:100704005B68590213D46D4B1A68920702D5E268EC
:10071400012AC8D11868F82292FAA2F2B2FA82F138
:1007240022698A4020F0F8010A431A6070E7E268FF
:10073400664BDAB101221A60FFF708FE5F4D0646E8
:100744002B689B070CD52968F82393FAA3F3B3FA13
:1007540083F22369934021F0F80213432B6057E797
:10076400FFF7F4FD801B0228EAD9B0E71A60FFF70F
:10077400EDFD524D06462B689F077FF549AFFFF705
:10078400E5FD801B0228F6D9A1E76269504B7AB1D6
:1007940001221A60FFF7DAFD484D06466B6F980791
:1007A4003FF53AAFFFF7D2FD801B0228F6D98EE75A
:1007B4001A60FFF7CBFD414D06466B6F99077FF535
:1007C4002BAFFFF7C3FD801B0228F6D97FE7FFF7A5
:1007D400BDFD801B02287FF636AF78E7FFF7B6FD34
:1007E400801BB8427FF640AF71E7FFF7AFFD334D92
:1007F400064641F288372B6F98077FF539AFFFF72C
:10080400A5FD801BB842F6D961E72C4DAB6803F017
:100814000C03082B3FF447AF2E4E0023022A33600B
:100824003ED1FFF793FD07462B68990132D447F672
:10083400C07797FAA7F74FF44032B7FA87F792FADE
:10084400A2F24FF07061B2FA82F091FAA1F1226A39
:10085400E3691343626A02FA07F7A26A5208013A8B
:1008640082403B431343E26A144CB1FA81F102FA29
:1008740001F10B436B6001233360FFF767FD05460D
:1008840023689A013FF5F8AEFFF760FD401B02288C
:10089400F6D91CE7FFF75AFDC01B0228C4D916E796
:1008A400FFF754FD04462B689B017FF5E5AEFFF787
:1008B4004DFD001B0228F6D909E700BF00380240AD
:1008C4000070004070380240023802400000474285
:1008D400800E474260004742194A936803F00C03B4
:1008E400042B10B503D0082B03D0164810BD1648AE
:1008F40010BD5168536801F03F0113F4800F47F6AF
:10090400C074536894FAA4F0B0FA80F003EA0403C4
:1009140023FA00F314BF0C480A48B0FBF1F0584323
:10092400074B4FF440325B6892FAA2F2B2FA82F2B9
:1009340003F44033D34001335B00B0FBF3F010BD4C
:10094400003802400024F40000127A00564B1A6862
:1009540002F00F028A422DE9F04105460E4630D3DB
:100964002A68940737D4D0073DD44F4B1A6802F055
:100974000F029642C0F088802A68510700F18C80EB
:10098400130707D5494A2969936823F4604343EA66
:10099400C1039360FFF7A0FF444BF0229B6892FAD7
:1009A400A2F2B2FA82F203F0F003D340404AD35CDD
:1009B400D840404B18600F20FFF792FC0020BDE8A0
:1009C400F081CAB21A701B6803F00F039942C7D0B2
:1009D4000120BDE8F0813549A8688B6823F0F00355
:1009E40003438B60BFE76A68304B012A1ED11B6842
:1009F40013F4003FECD02D4CA36823F003031343FE
:100A0400A360FFF7A3FC6B68012B074641F288380B
:100A140016D1A36803F00C03042BA6D0FFF796FCB1
:100A2400C01B4045F5D90320BDE8F081911E012982
:100A34001B6802D813F0007FDCE713F0020FD9E73C
:100A4400022B0AD1A36803F00C03082B8DD0FFF707
:100A54007DFCC01B4045F5D9E5E7032B0FD1A36806
:100A640003F00C030C2B80D0FFF770FCC01B404537
:100A7400F5D9D8E7FFF76AFCC01B4045D3D8A36873
:100A840013F00C0FF6D170E7F2B21A701B6803F082
:100A94000F039E429CD16FE70449E8688B6823F4F6
:100AA400E05303438B606BE7003C02400038024094
:100AB4006E0D000808000020014B1868704700BF45
:100AC4000800002008B500F015F8000001230360B9
:100AD400014B0B60704700BF0000002008B500F018
:100AE4001BF8024B024A9A6008BD00BF00ED00E00B
:100AF40000000008BFF34F8F0549064BCA6802F493
:100B0400E0621343CB60BFF34F8F00BFFDE700BF2C
:100B140000ED00E00400FA050C4B1A68002142F0D5
:100B240001021A6099601A6822F0847222F48032F9
:100B34001A60074A5A601A6822F480221A60D9603F
:100B4400044B4FF000629A60704700BF00380240C7
:100B54001030002400ED00E0174A1849936803F0B0
:100B64000C03042B10B50DD0082B0DD0144B0B60C7
:100B7400114B144A9B68C3F30313D25C0B68D34034
:100B84000B6010BD104BF2E7546850685268630262
:100B9400C2F3881200F03F004CBF0B4B084BB3FB71
:100BA400F0F35343044A5268C2F301420132520043
:100BB400B3FBF2F3DBE700BF00380240080000207B
:100BC4000024F4007E0D000800127A0030B50D4AAE
:100BD4000D4C136B87B043F0080313634FF4805537
:100BE4000123022201A92046029304920393019552
:100BF400FFF71AFC002229462046FFF7FBFC07B04A
:100C040030BD00BF00380240000C02400A4B4FF4D4
:100C14007A721B68B3FBF2F3013BB3F1807F09D214
:100C2400064A5360064BF02183F823100023936097
:100C340007231360704700BF0800002010E000E0A5
:100C440000ED00E0024B18601A68002AFCD17047DE
:100C540014000020034B1A6812B11A68013A1A6092
:100C6400704700BF1400002008B5FFF767FBBDE81C
:100C74000840FFF7EFBF000030B595B00024224BC9
:100C840001941A6C42F080521A641B6C03F0805376
:100C94000193019B1D4B02941A6842F480421A602E
:100CA4001B6803F480430293029B01230893099376
:100CB4004FF480030F93082310934FF4A873022575
:100CC400119308A80723139312950E95FFF798FC28
:100CD4000F2303934FF4A0530521069303A84FF465
:100CE4008053079304950594FFF730FEFFF7E4FE65
:100CF4004FF47A73B0FBF3F0FFF774FB0420FFF7B3
:100D040087FB15B030BD00BF0038024000700040C2
:100D140008B5FFF7F9FAFFF7AFFFBDE80840FFF7A2
:100D24001BBF000038B5FFF771FFFFF74FFF0D4DF4
:100D3400002401224FF480512846FFF75BFC002C6D
:100D440040F2EE2008BF4FF47A70FFF77BFF0022D9
:100D54004FF480512846FFF74DFCFA20FFF772FF4D
:100D64000134E6E7000C0240704700000000010275
:100D74000304010203040607080900000000000040
:0A0D8400000001020304060708093D
:0C0D90000C000020000000000024F40013
:040000050800018965
:00000001FF
